{
  "contractName": "AuthContract",
  "abi": [
    {
      "constant": true,
      "inputs": [
        {
          "internalType": "string",
          "name": "s",
          "type": "string"
        }
      ],
      "name": "string_tobytes",
      "outputs": [
        {
          "internalType": "bytes",
          "name": "",
          "type": "bytes"
        }
      ],
      "payable": false,
      "stateMutability": "pure",
      "type": "function"
    },
    {
      "constant": false,
      "inputs": [
        {
          "internalType": "uint256",
          "name": "userID",
          "type": "uint256"
        },
        {
          "internalType": "string",
          "name": "password",
          "type": "string"
        },
        {
          "internalType": "string",
          "name": "userType",
          "type": "string"
        }
      ],
      "name": "addData",
      "outputs": [],
      "payable": false,
      "stateMutability": "nonpayable",
      "type": "function"
    },
    {
      "constant": true,
      "inputs": [
        {
          "internalType": "uint256",
          "name": "userID",
          "type": "uint256"
        },
        {
          "internalType": "string",
          "name": "password",
          "type": "string"
        },
        {
          "internalType": "string",
          "name": "userType",
          "type": "string"
        }
      ],
      "name": "verifyUser",
      "outputs": [
        {
          "internalType": "bool",
          "name": "",
          "type": "bool"
        }
      ],
      "payable": false,
      "stateMutability": "view",
      "type": "function"
    },
    {
      "constant": true,
      "inputs": [],
      "name": "getUsers",
      "outputs": [
        {
          "components": [
            {
              "internalType": "uint256",
              "name": "userID",
              "type": "uint256"
            },
            {
              "internalType": "bytes32",
              "name": "hashedPassword",
              "type": "bytes32"
            },
            {
              "internalType": "string",
              "name": "userType",
              "type": "string"
            }
          ],
          "internalType": "struct AuthContract.user[]",
          "name": "",
          "type": "tuple[]"
        }
      ],
      "payable": false,
      "stateMutability": "view",
      "type": "function"
    },
    {
      "constant": false,
      "inputs": [
        {
          "internalType": "uint256",
          "name": "userID",
          "type": "uint256"
        },
        {
          "internalType": "string",
          "name": "userType",
          "type": "string"
        }
      ],
      "name": "removeUser",
      "outputs": [],
      "payable": false,
      "stateMutability": "nonpayable",
      "type": "function"
    }
  ],
  "bytecode": "0x608060405234801561001057600080fd5b50610cd6806100206000396000f3fe608060405234801561001057600080fd5b50600436106100565760003560e01c8062ce8e3e1461005b5780633e618995146100795780639d3c04ce146100955780639f15790d146100c5578063bc6d0577146100e1575b600080fd5b610063610111565b6040516100709190610abe565b60405180910390f35b610093600480360361008e919081019061087f565b610226565b005b6100af60048036036100aa919081019061087f565b61030a565b6040516100bc9190610ae0565b60405180910390f35b6100df60048036036100da919081019061082b565b6104d6565b005b6100fb60048036036100f691908101906107ea565b610647565b6040516101089190610afb565b60405180910390f35b60606000805480602002602001604051908101604052809291908181526020016000905b8282101561021d57838290600052602060002090600302016040518060600160405290816000820154815260200160018201548152602001600282018054600181600116156101000203166002900480601f0160208091040260200160405190810160405280929190818152602001828054600181600116156101000203166002900480156102055780601f106101da57610100808354040283529160200191610205565b820191906000526020600020905b8154815290600101906020018083116101e857829003601f168201915b50505050508152505081526020019060010190610135565b50505050905090565b606061023183610647565b905060006002826040516102459190610aa7565b602060405180830381855afa158015610262573d6000803e3d6000fd5b5050506040513d601f19601f8201168201806040525061028591908101906107c1565b9050600060405180606001604052808781526020018381526020018581525090806001815401808255809150509060018203906000526020600020906003020160009091929091909150600082015181600001556020820151816001015560408201518160020190805190602001906102ff929190610656565b505050505050505050565b6000606061031784610647565b9050600060028260405161032b9190610aa7565b602060405180830381855afa158015610348573d6000803e3d6000fd5b5050506040513d601f19601f8201168201806040525061036b91908101906107c1565b905060008090505b6000805490508110156104c7576000818154811061038d57fe5b906000526020600020906003020160000154871480156103ca5750600081815481106103b557fe5b90600052602060002090600302016001015482145b80156104a95750610490600082815481106103e157fe5b90600052602060002090600302016002018054600181600116156101000203166002900480601f0160208091040260200160405190810160405280929190818152602001828054600181600116156101000203166002900480156104865780601f1061045b57610100808354040283529160200191610486565b820191906000526020600020905b81548152906001019060200180831161046957829003601f168201915b5050505050610647565b805190602001206104a086610647565b80519060200120145b156104ba57600193505050506104cf565b8080600101915050610373565b506000925050505b9392505050565b6000809050600090505b60008054905081101561060457600081815481106104fa57fe5b906000526020600020906003020160000154831480156105ed57506105d46000828154811061052557fe5b90600052602060002090600302016002018054600181600116156101000203166002900480601f0160208091040260200160405190810160405280929190818152602001828054600181600116156101000203166002900480156105ca5780601f1061059f576101008083540402835291602001916105ca565b820191906000526020600020905b8154815290600101906020018083116105ad57829003601f168201915b5050505050610647565b805190602001206105e483610647565b80519060200120145b156105f757610604565b80806001019150506104e0565b6000818154811061061157fe5b9060005260206000209060030201600080820160009055600182016000905560028201600061064091906106d6565b5050505050565b60608082905080915050919050565b828054600181600116156101000203166002900490600052602060002090601f016020900481019282601f1061069757805160ff19168380011785556106c5565b828001600101855582156106c5579182015b828111156106c45782518255916020019190600101906106a9565b5b5090506106d2919061071e565b5090565b50805460018160011615610100020316600290046000825580601f106106fc575061071b565b601f01602090049060005260206000209081019061071a919061071e565b5b50565b61074091905b8082111561073c576000816000905550600101610724565b5090565b90565b60008151905061075281610c65565b92915050565b600082601f83011261076957600080fd5b813561077c61077782610b4a565b610b1d565b9150808252602083016020830185838301111561079857600080fd5b6107a3838284610c12565b50505092915050565b6000813590506107bb81610c7c565b92915050565b6000602082840312156107d357600080fd5b60006107e184828501610743565b91505092915050565b6000602082840312156107fc57600080fd5b600082013567ffffffffffffffff81111561081657600080fd5b61082284828501610758565b91505092915050565b6000806040838503121561083e57600080fd5b600061084c858286016107ac565b925050602083013567ffffffffffffffff81111561086957600080fd5b61087585828601610758565b9150509250929050565b60008060006060848603121561089457600080fd5b60006108a2868287016107ac565b935050602084013567ffffffffffffffff8111156108bf57600080fd5b6108cb86828701610758565b925050604084013567ffffffffffffffff8111156108e857600080fd5b6108f486828701610758565b9150509250925092565b600061090a8383610a48565b905092915050565b600061091d82610b86565b6109278185610bb4565b93508360208202850161093985610b76565b8060005b85811015610975578484038952815161095685826108fe565b945061096183610ba7565b925060208a0199505060018101905061093d565b50829750879550505050505092915050565b61099081610bf2565b82525050565b61099f81610bfe565b82525050565b60006109b082610b91565b6109ba8185610bc5565b93506109ca818560208601610c21565b6109d381610c54565b840191505092915050565b60006109e982610b91565b6109f38185610bd6565b9350610a03818560208601610c21565b80840191505092915050565b6000610a1a82610b9c565b610a248185610be1565b9350610a34818560208601610c21565b610a3d81610c54565b840191505092915050565b6000606083016000830151610a606000860182610a98565b506020830151610a736020860182610996565b5060408301518482036040860152610a8b8282610a0f565b9150508091505092915050565b610aa181610c08565b82525050565b6000610ab382846109de565b915081905092915050565b60006020820190508181036000830152610ad88184610912565b905092915050565b6000602082019050610af56000830184610987565b92915050565b60006020820190508181036000830152610b1581846109a5565b905092915050565b6000604051905081810181811067ffffffffffffffff82111715610b4057600080fd5b8060405250919050565b600067ffffffffffffffff821115610b6157600080fd5b601f19601f8301169050602081019050919050565b6000819050602082019050919050565b600081519050919050565b600081519050919050565b600081519050919050565b6000602082019050919050565b600082825260208201905092915050565b600082825260208201905092915050565b600081905092915050565b600082825260208201905092915050565b60008115159050919050565b6000819050919050565b6000819050919050565b82818337600083830152505050565b60005b83811015610c3f578082015181840152602081019050610c24565b83811115610c4e576000848401525b50505050565b6000601f19601f8301169050919050565b610c6e81610bfe565b8114610c7957600080fd5b50565b610c8581610c08565b8114610c9057600080fd5b5056fea365627a7a723158201b619dbb487b7337904d1589f6dbfbe1df5135214a5a10fd757d0db76903fed66c6578706572696d656e74616cf564736f6c63430005100040",
  "source": "pragma solidity >=0.4.22 <0.8.0;\n\npragma experimental ABIEncoderV2;\n\ncontract AuthContract {\n    struct user {\n        uint256 userID;\n        bytes32 hashedPassword;\n        string userType;\n    }\n\n    user[] userList;\n\n    function string_tobytes(string memory s)\n        public\n        pure\n        returns (bytes memory)\n    {\n        bytes memory b3 = bytes(s);\n        return b3;\n    }\n\n    function addData(\n        uint256 userID,\n        string memory password,\n        string memory userType\n    ) public {\n        bytes memory convert = string_tobytes(password);\n        bytes32 pswd = sha256(convert);\n        userList.push(\n            user({userID: userID, hashedPassword: pswd, userType: userType})\n        );\n    }\n\n    function verifyUser(\n        uint256 userID,\n        string memory password,\n        string memory userType\n    ) public view returns (bool) {\n        bytes memory convert = string_tobytes(password);\n        bytes32 pswd = sha256(convert);\n        for (uint256 i = 0; i < userList.length; i++) {\n            if (\n                userID == userList[i].userID &&\n                pswd == userList[i].hashedPassword &&\n                keccak256(string_tobytes(userType)) ==\n                keccak256(string_tobytes(userList[i].userType))\n            ) return true;\n        }\n        return false;\n    }\n\n    function getUsers() public view returns (user[] memory) {\n        return userList;\n    }\n\n    function removeUser(uint256 userID, string memory userType) public {\n        uint256 i = 0;\n        for (i = 0; i < userList.length; i++) {\n            if (\n                userID == userList[i].userID &&\n                keccak256(string_tobytes(userType)) ==\n                keccak256(string_tobytes(userList[i].userType))\n            ) break;\n        }\n        delete userList[i];\n    }\n}\n",
  "sourcePath": "S:/Coding/decentralised-webkiosk-admin/blockchain/contracts/AuthContract.sol",
  "compiler": {
    "name": "solc",
    "version": "0.5.16+commit.9c3226ce.Emscripten.clang"
  },
  "schemaVersion": "3.3.2",
  "updatedAt": "2020-11-30T05:57:53.770Z",
  "networkType": "ethereum",
  "devdoc": {
    "methods": {}
  },
  "userdoc": {
    "methods": {}
  }
}