{
  "contractName": "Auth",
  "abi": [
    {
      "constant": true,
      "inputs": [
        {
          "internalType": "string",
          "name": "s",
          "type": "string"
        }
      ],
      "name": "string_tobytes",
      "outputs": [
        {
          "internalType": "bytes",
          "name": "",
          "type": "bytes"
        }
      ],
      "payable": false,
      "stateMutability": "pure",
      "type": "function"
    },
    {
      "constant": false,
      "inputs": [
        {
          "internalType": "uint256",
          "name": "userID",
          "type": "uint256"
        },
        {
          "internalType": "string",
          "name": "password",
          "type": "string"
        },
        {
          "internalType": "string",
          "name": "userType",
          "type": "string"
        }
      ],
      "name": "addData",
      "outputs": [],
      "payable": false,
      "stateMutability": "nonpayable",
      "type": "function"
    },
    {
      "constant": true,
      "inputs": [
        {
          "internalType": "uint256",
          "name": "userID",
          "type": "uint256"
        },
        {
          "internalType": "string",
          "name": "password",
          "type": "string"
        },
        {
          "internalType": "string",
          "name": "userType",
          "type": "string"
        }
      ],
      "name": "verifyUser",
      "outputs": [
        {
          "internalType": "bool",
          "name": "",
          "type": "bool"
        }
      ],
      "payable": false,
      "stateMutability": "view",
      "type": "function"
    },
    {
      "constant": true,
      "inputs": [],
      "name": "getUsers",
      "outputs": [
        {
          "components": [
            {
              "internalType": "uint256",
              "name": "userID",
              "type": "uint256"
            },
            {
              "internalType": "bytes32",
              "name": "hashedPassword",
              "type": "bytes32"
            },
            {
              "internalType": "string",
              "name": "userType",
              "type": "string"
            }
          ],
          "internalType": "struct Auth.user[]",
          "name": "",
          "type": "tuple[]"
        }
      ],
      "payable": false,
      "stateMutability": "view",
      "type": "function"
    }
  ],
  "bytecode": "0x608060405234801561001057600080fd5b50610aa2806100206000396000f3fe608060405234801561001057600080fd5b506004361061004b5760003560e01c8062ce8e3e146100505780633e6189951461006e5780639d3c04ce1461008a578063bc6d0577146100ba575b600080fd5b6100586100ea565b604051610065919061088a565b60405180910390f35b6100886004803603610083919081019061064b565b6101ff565b005b6100a4600480360361009f919081019061064b565b6102e3565b6040516100b191906108ac565b60405180910390f35b6100d460048036036100cf919081019061060a565b6104af565b6040516100e191906108c7565b60405180910390f35b60606000805480602002602001604051908101604052809291908181526020016000905b828210156101f657838290600052602060002090600302016040518060600160405290816000820154815260200160018201548152602001600282018054600181600116156101000203166002900480601f0160208091040260200160405190810160405280929190818152602001828054600181600116156101000203166002900480156101de5780601f106101b3576101008083540402835291602001916101de565b820191906000526020600020905b8154815290600101906020018083116101c157829003601f168201915b5050505050815250508152602001906001019061010e565b50505050905090565b606061020a836104af565b9050600060028260405161021e9190610873565b602060405180830381855afa15801561023b573d6000803e3d6000fd5b5050506040513d601f19601f8201168201806040525061025e91908101906105e1565b9050600060405180606001604052808781526020018381526020018581525090806001815401808255809150509060018203906000526020600020906003020160009091929091909150600082015181600001556020820151816001015560408201518160020190805190602001906102d89291906104be565b505050505050505050565b600060606102f0846104af565b905060006002826040516103049190610873565b602060405180830381855afa158015610321573d6000803e3d6000fd5b5050506040513d601f19601f8201168201806040525061034491908101906105e1565b905060008090505b6000805490508110156104a0576000818154811061036657fe5b906000526020600020906003020160000154871480156103a357506000818154811061038e57fe5b90600052602060002090600302016001015482145b80156104825750610469600082815481106103ba57fe5b90600052602060002090600302016002018054600181600116156101000203166002900480601f01602080910402602001604051908101604052809291908181526020018280546001816001161561010002031660029004801561045f5780601f106104345761010080835404028352916020019161045f565b820191906000526020600020905b81548152906001019060200180831161044257829003601f168201915b50505050506104af565b80519060200120610479866104af565b80519060200120145b1561049357600193505050506104a8565b808060010191505061034c565b506000925050505b9392505050565b60608082905080915050919050565b828054600181600116156101000203166002900490600052602060002090601f016020900481019282601f106104ff57805160ff191683800117855561052d565b8280016001018555821561052d579182015b8281111561052c578251825591602001919060010190610511565b5b50905061053a919061053e565b5090565b61056091905b8082111561055c576000816000905550600101610544565b5090565b90565b60008151905061057281610a31565b92915050565b600082601f83011261058957600080fd5b813561059c61059782610916565b6108e9565b915080825260208301602083018583830111156105b857600080fd5b6105c38382846109de565b50505092915050565b6000813590506105db81610a48565b92915050565b6000602082840312156105f357600080fd5b600061060184828501610563565b91505092915050565b60006020828403121561061c57600080fd5b600082013567ffffffffffffffff81111561063657600080fd5b61064284828501610578565b91505092915050565b60008060006060848603121561066057600080fd5b600061066e868287016105cc565b935050602084013567ffffffffffffffff81111561068b57600080fd5b61069786828701610578565b925050604084013567ffffffffffffffff8111156106b457600080fd5b6106c086828701610578565b9150509250925092565b60006106d68383610814565b905092915050565b60006106e982610952565b6106f38185610980565b93508360208202850161070585610942565b8060005b85811015610741578484038952815161072285826106ca565b945061072d83610973565b925060208a01995050600181019050610709565b50829750879550505050505092915050565b61075c816109be565b82525050565b61076b816109ca565b82525050565b600061077c8261095d565b6107868185610991565b93506107968185602086016109ed565b61079f81610a20565b840191505092915050565b60006107b58261095d565b6107bf81856109a2565b93506107cf8185602086016109ed565b80840191505092915050565b60006107e682610968565b6107f081856109ad565b93506108008185602086016109ed565b61080981610a20565b840191505092915050565b600060608301600083015161082c6000860182610864565b50602083015161083f6020860182610762565b506040830151848203604086015261085782826107db565b9150508091505092915050565b61086d816109d4565b82525050565b600061087f82846107aa565b915081905092915050565b600060208201905081810360008301526108a481846106de565b905092915050565b60006020820190506108c16000830184610753565b92915050565b600060208201905081810360008301526108e18184610771565b905092915050565b6000604051905081810181811067ffffffffffffffff8211171561090c57600080fd5b8060405250919050565b600067ffffffffffffffff82111561092d57600080fd5b601f19601f8301169050602081019050919050565b6000819050602082019050919050565b600081519050919050565b600081519050919050565b600081519050919050565b6000602082019050919050565b600082825260208201905092915050565b600082825260208201905092915050565b600081905092915050565b600082825260208201905092915050565b60008115159050919050565b6000819050919050565b6000819050919050565b82818337600083830152505050565b60005b83811015610a0b5780820151818401526020810190506109f0565b83811115610a1a576000848401525b50505050565b6000601f19601f8301169050919050565b610a3a816109ca565b8114610a4557600080fd5b50565b610a51816109d4565b8114610a5c57600080fd5b5056fea365627a7a72315820965f3d2fee2f73c037ea7bd598094841a4d13fa49ba46d041d520090d78f316e6c6578706572696d656e74616cf564736f6c63430005100040",
  "source": "pragma solidity >=0.4.22 <0.8.0;\n\npragma experimental ABIEncoderV2;\n\ncontract Auth {\n    struct user {\n        uint256 userID;\n        bytes32 hashedPassword;\n        string userType;\n    }\n\n    user[] userList;\n\n    function string_tobytes(string memory s)\n        public\n        pure\n        returns (bytes memory)\n    {\n        bytes memory b3 = bytes(s);\n        return b3;\n    }\n\n    function addData(\n        uint256 userID,\n        string memory password,\n        string memory userType\n    ) public {\n        bytes memory convert = string_tobytes(password);\n        bytes32 pswd = sha256(convert);\n        userList.push(\n            user({userID: userID, hashedPassword: pswd, userType: userType})\n        );\n    }\n\n    function verifyUser(\n        uint256 userID,\n        string memory password,\n        string memory userType\n    ) public view returns (bool) {\n        bytes memory convert = string_tobytes(password);\n        bytes32 pswd = sha256(convert);\n        for (uint256 i = 0; i < userList.length; i++) {\n            if (\n                userID == userList[i].userID &&\n                pswd == userList[i].hashedPassword &&\n                keccak256(string_tobytes(userType)) ==\n                keccak256(string_tobytes(userList[i].userType))\n            ) return true;\n        }\n        return false;\n    }\n\n    function getUsers() public view returns (user[] memory) {\n        return userList;\n    }\n}\n",
  "sourcePath": "S:/Coding/decentralised-webkiosk-admin/blockchain/contracts/AuthContract.sol",
  "compiler": {
    "name": "solc",
    "version": "0.5.16+commit.9c3226ce.Emscripten.clang"
  },
  "schemaVersion": "3.3.2",
  "updatedAt": "2020-11-07T08:06:28.726Z",
  "devdoc": {
    "methods": {}
  },
  "userdoc": {
    "methods": {}
  }
}